:020000040000FA
:10000000A0040020B9000000B5000000B500000009
:1000100000000000000000000000000000000000E0
:10002000000000000000000000000000B50000001B
:100030000000000000000000B5000000C70500003F
:10004000B5000000B5000000B5000000B5000000DC
:10005000B5000000B5000000B5000000B5000000CC
:10006000B5000000B500000009060000B500000062
:10007000B5000000B5000000B5000000B5000000AC
:10008000B5000000B5000000E1050000F505000026
:10009000B50000000000000000000000B5000000F6
:1000A000B5000000B5000000B5000000B50000007C
:1000B0000000000000E0000000BF00BF00BF00BF64
:1000C00000BF6F496F49FE49FE496D490A68714F8B
:1000D000BA430A6070490A6A704F3A400A62CA68B5
:1000E0001209FCD34A696E4FBA436E4F3A434A61D4
:1000F000CA689208FCD38A69694FBA43694F3A4388
:100100008A61CA68D208FCD36749684A8A604A781B
:10011000120AFCD2664A4A604A78120AFCD2624944
:10012000594A8A604A78120AFCD2634A4A604A787D
:10013000120AFCD26149624A4A6057494A6A604FD2
:100140003A43574FBA434A62CA685209FCD35D4AE0
:100150008A625D4ACA624A6A5C4F3A434A625249BD
:100160005B4A4A804A78120AFCD24F49594A8A604F
:100170004A78120AFCD24C49574A8A604A78120AD5
:10018000FCD2564A8A804A78120AFCD2544A0A7132
:100190004A68544F3A434A604A78120AFCD24249AC
:1001A000514A8A604A78120AFCD2504A8A804A78B8
:1001B000120AFCD24C4A0A714A684D4F3A434A60CF
:1001C0004A78120AFCD24B494A78474F3A434A7060
:1001D0000A6A494F3A430A623349484A4A804A7890
:1001E000120AFCD2464A4A804A78120AFCD2454A90
:1001F0004A804A78120AFCD2434A4A804A78120A54
:10020000FCD24249424A8A60424A8A624249434A8F
:100210004A700A782A4F3A430A70CA79120AFCD205
:100220003F49404A4A600A683F4F3A430A603F49A3
:100230003F4A0A603F49404A8A60404A0A61184A78
:100240004A613F490A683F4F3A430A60304A4A735D
:10025000134A8A610A781A4F3A430A70CA7B120A13
:10026000FCD200F07EF900F09BF800F021FA00F0DB
:100270003BFB03490A680D4F3A430A60C8E000009F
:100280009800002000000020000000000000000096
:1002900000000000FFFFFFFF00080040FF00FFFF1D
:1002A000800000004E050000000C0040010000002E
:1002B00001050100000000000007010000400041AE
:1002C0000200000000760000B90502040C040000E2
:1002D00000410000020800000308000003040000C1
:1002E00003000000000019000400000004060000E4
:1002F0000000010000040040083800001B4200001C
:100300001C4400000342000015400000004400416E
:1003100010000000100040C000100040BB000000B2
:1003200010E000E0FFFFFF000700000000E100E038
:1003300000041C0000E400E00000C0000000C0C099
:10034000002C004224160000000000005C490968EF
:100350005C4A12688A608A61704770475A495B4AF2
:100360008A605B4A8A625B4A8A627047704770475C
:100370007047704700B5584909680A68574F3A43B3
:100380000A60574ACA60574A4A600A7FD208FCD2BC
:100390000A68554F3A430A600A7F9208FCD200BDB2
:1003A00000B5524A4C490A60FFF7D8FFFFF7E2FF59
:1003B00050490A68504FBA430A6000BD4049096875
:1003C000404A12684A617047434909688A6992083D
:1003D000FCD33B4909683B4A12688A6170473E4931
:1003E00009688A695208FCD30E85704741490A683A
:1003F000444FBA430A60384909688A695208FCD3F5
:100400000E858A699208FCD38A69D208FCD27047AB
:1004100037490A68520808D335490A68394FBA4340
:100420000A6000F099F800F026F831490A68D2080D
:100430000FD32F490A68394F3A430A603849CA7BBB
:10044000120911D32A490A68344FBA430A602B496A
:100450008F4627490A68920906D325490A68354F0D
:10046000BA430A6000F019F821490A681209CFD28C
:1004700030BFCDE7CCE700B51D490A6852090BD261
:100480001B490A682F4F3A430A6000F0A4FA184942
:100490000A682C4FBA430A6000BD00B514490A68C7
:1004A00052090BD212490A68264F3A430A6000F0FB
:1004B00052F90F490A68234FBA430A6000BD000091
:1004C0000400002008000020004400410000030058
:1004D000030045D2080047D29C0000200C003000E9
:1004E000170000000000020002000000000C0042A3
:1004F0009800002000000020FFFFFFFFA90500007A
:1005000000000000010000000000000000000000EA
:1005100000000000000000000000000008000000D3
:100520000034004200000000000000000000000055
:10053000000000002000000000000000000000009B
:10054000000000001000000000000000000000009B
:10055000000000000000000000B53549354A0A607F
:1005600000BD35490A68354F3A430A60344A4A713A
:10057000CA7B120AFCD20A78324F3A430A70CA7B0D
:10058000120AFCD270472C490A83CA7B120AFCD299
:100590002D4A4A71CA7B120AFCD22C490A68284F9C
:1005A0003A430A602A498F4628490A68244FBA43C9
:1005B0000A60704718B500239B00C8509B080133A0
:1005C000A342F9D118BD86B52349244A8A60CA7965
:1005D000120AFCD222490A68224F3A42FFE786BD3E
:1005E00086B51A490A68214F3A430A602049114AE0
:1005F0008A7386BD86B515490A681F4F3A430A605B
:100600001E490C4A8A7386BD06B51D498A69D208FF
:1006100000D38E6A1A498A69120A04D319490A68F2
:10062000124F3A430A601649174A8A6106BD000014
:100630001C44004110000000003400422013000060
:1006400004000000020000004000000098000020AC
:10065000110400000000000000100040A500000090
:1006600010E000E0000001000000000001000000B8
:10067000002C00420000000020000000003000427A
:10068000000C0042000000208000000079490A6848
:10069000794F3A430A60794A4A73704709B5002096
:1006A00003469B00E258EA500130B842F8D109BD38
:1006B00030B573490A68734F3A430A6072490A6851
:1006C000724F3A430A60012730B4714C714DFFF705
:1006D000E5FF30BCFFF7DAFF6F4A70490A60704AE5
:1006E00070490A60704A71490A60FFF72FFE694D30
:1006F0006F4C2F78FF0030B46E4C6F4DFFF7CEFF7C
:1007000030BC6E4AFFF73FFF0E20FFF757FEFF2376
:100710006678FFF764FE2678FFF761FE013BF7D1AC
:10072000FFF752FE02340138EFD16A7851498A61ED
:100730000A78634F3A430A70CA7B120AFCD204E07B
:100740004F490A68604FBA430A604F490A684F4FE1
:10075000BA430A6030BD38B549490A68120C30D333
:1007600049490A68494F3A430A604B4A4B490A6073
:100770004B4A4C490A604C4A4C490A60FFF7E6FD77
:1007800046490968544A8A824B4C424D0820FFF77B
:1007900015FE2B789B000646FFF721FE2678FFF713
:1007A0001EFE641C013BF6D1FFF70EFE0138EED1B0
:1007B0000120AB78034202D000F009F801E000F01C
:1007C00031F831490A68314FBA430A6038BD40B543
:1007D000304D2F78384C7F01E419043C08203F4FFE
:1007E000EFF30082BA4382F3008800262B78226858
:1007F00012BA5200324312BA2260EFF30086760F2B
:10080000374F3E40043C013BF1D1224D2F78BF00D1
:10081000E419226812BA324312BA2260E41B01388A
:10082000DDD140BD40B51B4D2F78234C08202B4F08
:10083000EFF30082BA4382F3008800262B78226807
:1008400012BA5208324312BA2260EFF30086B600A1
:10085000244F3E400434013BF1D10E4D2F78BF00B0
:10086000E41B226812BA324312BA2260E41901383A
:10087000DDD140BD00300042241700001000000010
:100880009800002000800000000000200010000000
:10089000340B00006C000020000C00429C00002083
:1008A0000044004104000020000004000800002073
:1008B000F80A0000140B00000C000020FF000000EC
:1008C00002000000000000000030000000000000F6
:1008D0000000000000000000840000000000002074
:1008E000010000000000008000B562490A68624F04
:1008F0003A430A6061490A68614F3A430A60614AB3
:10090000FFF741FE002060490724FFF753FE5F49CF
:100910000224FFF74FFE5E4908605E4A5E490A60A6
:100920005E4A5F490A605F4A5F490A60FFF70EFD51
:10093000594909685E4ACA82554C5E4E5E48064077
:10094000FFF73CFDFFF752FD4C490A68520835D2CB
:10095000564EFFF74BFD49490A6852082ED22670C1
:100960000134FFF731FD484C554E53480640FFF720
:1009700025FDFFF73BFD41490A6852081ED2514F41
:10098000B8464A48494EFFF731FD3C490A685208CB
:1009900014D2265401304045F4D1FFF715FDFFF77E
:1009A0000DFD494E49480640FFF719FD484E47489E
:1009B0000640FFF714FDFFF707FD06E02D490A6822
:1009C0002D4FBA430A60FFF7FFFC2C490A682C4FF1
:1009D000BA430A6000BD00B526490A68520B43D3EA
:1009E00026490A68264F3A430A602A4A2A490A6079
:1009F0002A4A2B490A602B4A2B490A60FFF7A6FCBA
:100A0000254909682A4ACA82FFF7D8FC354E2F4883
:100A10000640FFF7EBFC344E2C480640FFF7E6FC9F
:100A2000FFF7D2FC314AFFF7AEFD184CFFF7C6FCCA
:100A30002F4E21480640FFF7D9FC10490A6852089A
:100A400010D22C4FB8461948184EFFF7CFFC0B496F
:100A50000A68520806D2265401304045F4D1FFF707
:100A6000B3FC01E0FFF7B0FC04490A68044FBA4345
:100A70000A6000BD98000020001000000000002067
:100A80000020000002000000700000208C00002008
:100A900094000020000C00429C0000200044004113
:100AA00004000020040000000800002000000000F6
:100AB00084000000D0000000FF00000000000000E3
:100AC000880000001A000000F20000007F00000013
:100AD0000100000000000000000000000000000015
:100AE00000000000F4000000250000000C000000E1
:100AF000F700000006000000000F0009000A070BC5
:100B0000010C0001000200030004000500060007BC
:100B100000080000010203040102030401020304AF
:100B2000010203040102030401020304010203049D
:100B30000102030401990100000000000000000010
:100B400000000000000000000000000000000000A5
:100B50000000000000000000000000000000000095
:100B60000000000000000000000000000000000085
:100B70000000000000000000000000000000000075
:100B80000000000000000000000000000000000065
:100B90000000000000000000000000000000000055
:100BA0000000000000000000000000000000000045
:100BB0000000000000000000000000000000000035
:100BC0000000000000000000000000000000000025
:080BD00000000000000000001D
:04000005000000B93E
:00000001FF
