:020000040000FA
:1000000070040020B9000000B5000000B500000039
:1000100000000000000000000000000000000000E0
:10002000000000000000000000000000B50000001B
:100030000000000000000000B500000017050000EF
:10004000B5000000B5000000B5000000B5000000DC
:10005000B5000000B5000000B5000000B5000000CC
:10006000B5000000B5000000B5000000B5000000BC
:10007000B5000000B5000000B5000000B5000000AC
:10008000B5000000B5000000310500004505000086
:10009000B50000000000000000000000B5000000F6
:1000A000B5000000B5000000B5000000B50000007C
:1000B0000000000000E0000000BF00BF00BF00BF64
:1000C00000BF6A490A686A4FBA430A6069490A6A06
:1000D000694F3A400A62CA681209FCD34A69674FFD
:1000E000BA43674F3A434A61CA689208FCD38A69A7
:1000F000624FBA43624F3A438A61CA68D208FCD35E
:100100006049614A8A604A78120AFCD25F4A4A60B2
:100110004A78120AFCD25B495D4A8A604A78120A20
:10012000FCD25C4A4A604A78120AFCD25A495B4ABD
:100130004A6050494A6A594F3A43504FBA434A625B
:10014000CA685209FCD3564A8A62564ACA624A6A47
:10015000554F3A434A624B49544A4A804A78120AF8
:10016000FCD24849524A8A604A78120AFCD2454970
:10017000504A8A604A78120AFCD24F4A8A804A78EA
:10018000120AFCD24D4A0A714A684D4F3A434A60FE
:100190004A78120AFCD23B494A4A8A604A78120AD3
:1001A000FCD2494A8A804A78120AFCD2454A0A712E
:1001B0004A68464F3A434A604A78120AFCD2444998
:1001C0004A78404F3A434A700A6A424F3A430A62B9
:1001D0002C49414A4A804A78120AFCD23F4A4A8056
:1001E0004A78120AFCD23E4A4A804A78120AFCD265
:1001F0003C4A4A804A78120AFCD23B493B4A8A6010
:100200003B4A8A623B493C4A4A700A78234F3A4348
:100210000A70CA79120AFCD23849394A4A600A6817
:10022000384F3A430A603849384A0A603849394AEF
:100230000A61124A4A6138490A68384F3A430A60EB
:100240002A4A4A730D4A8A610A78144F3A430A705F
:10025000CA7B120AFCD200F02CF900F0B7F903496E
:100260000A68094F3A430A609DE0000064000020DC
:10027000FFFFFFFF00080040FF00FFFF80000000BD
:100280004E050000000C00400100000001050100C7
:1002900000000000000701000040004102000000D3
:1002A00000760000B90502040C04000000410000C3
:1002B000020800000308000003040000030000001F
:1002C0000000190004000000040600000000010006
:1002D00000040040083800001B4200001C440000DD
:1002E00003420000154000000044004110000000DF
:1002F000100040C000100040BB00000010E000E013
:10030000FFFFFF000700000000E100E000001C000C
:1003100000E400E00000C0C0002C004224160000F1
:100320000000000070474149414A8A60414A8A61A1
:10033000414A8A62414A8A627047704770477047F3
:10034000704700B53E4909680A683E4F3A430A6063
:100350003D4ACA600A683D4F3A430A600A7FD208A4
:10036000FCD200BD00B53A4A35490A60FFF7DBFF11
:10037000FFF7E7FF00BD2D492E4A4A61704730491B
:1003800009688A699208FCD328492A4A8A61704719
:100390002B4909688A695208FCD30E8570472849A1
:1003A00009688E6A70472B490A68520806D32949A2
:1003B0000A682E4FBA430A6000F076F825490A68A9
:1003C000D2080FD323490A682B4F3A430A602B49BE
:1003D000CA7B120911D31F490A68274FBA430A6022
:1003E0001D498F461B490A68920906D319490A68B4
:1003F000274FBA430A6000F007F816490A68120945
:10040000D1D230BFCFE7CEE700B512490A68520912
:100410000BD210490A68224F3A430A6000F016F9DD
:100420000C490A681E4FBA430A6000BD00440041EF
:100430000000070000000400030045D2080047D276
:10044000680000200C0030001700000002000000CF
:10045000000C004264000020F904000000000000CD
:10046000000000000000000000000000010000008B
:1004700000000000000000000800000000340042FE
:10048000000000000000000000000000000000006C
:10049000200000000000000000000000000000003C
:1004A000100000000000000000B52B492B4A0A6034
:1004B00000BD2B490A682B4F3A430A602A4A4A7109
:1004C000CA7B120AFCD20A78284F3A430A70CA7BC8
:1004D000120AFCD2704722490A83CA7B120AFCD254
:1004E000234A4A71CA7B120AFCD222490A681E4F6B
:1004F0003A430A6020498F461E490A681A4FBA4398
:100500000A60704718B500239B00C8509B08013350
:10051000A342F9D118BD86B519491A4A8A60CA7929
:10052000120AFCD218490A68184F3A42FFE786BD02
:1005300086B510490A68174F3A430A601649074AB8
:100540008A7386BD86B50B490A68154F3A430A601F
:100550001449024A8A7386BD1C4400411000000001
:1005600000340042201300000400000002000000DC
:100570004000000064000020A7030000000000000D
:1005800000100040A500000010E000E000000100A5
:100590000000000001000000002C004200000000EC
:1005A000200000000030004265490A68654F3A4368
:1005B0000A60654A4A73704709B5002003469B00EC
:1005C000E258EA500130B842F8D109BD30B55F4970
:1005D0000A685F4F3A430A60012730B45D4C5E4DB4
:1005E000FFF7EAFF30BCFFF7DFFFFFF7BBFE5A4D16
:1005F0005A4C2F78FF0030B4594C5A4DFFF7DCFFAE
:1006000030BC594AFFF767FF0E20FFF7B4FEFF2307
:100610006678FFF7BDFE2678FFF7BAFE013BF7D1FB
:10062000FFF7ADFE02340138EFD16A7844498A61A0
:100630000A784E4F3A430A70CA7B120AFCD204E091
:1006400042490A684B4FBA430A6030BD38B53F494A
:100650000A68120C1FD3494A45490A60414C3E4D75
:100660000820FFF788FE2B789B000646FFF790FED8
:100670002678FFF78DFE641C013BF6D1FFF77FFE65
:100680000138EED10120AB78034202D000F004F82B
:1006900001E000F02CF838BD7FB52F4D2F78314C9C
:1006A0007F01E419043C0820364FEFF30082BA437F
:1006B00082F3008800262B78226812BA5200324357
:1006C00012BA2260EFF30086760F2F4F3E40043CB3
:1006D000013BF1D1204D2F78BF00E419226812BAF6
:1006E000324312BA2260E41B0138DDD17FBD7FB5F1
:1006F000194D2F781B4C0820224FEFF30082BA438C
:1007000082F3008800262B78226812BA52083243FE
:1007100012BA2260EFF30086B6001C4F3E4004344C
:10072000013BF1D10C4D2F78BF00E41B226812BAB7
:10073000324312BA2260E4190138DDD17FBD0000D6
:100740000030004224170000100000006400002068
:1007500000800000CC07000060000020900700002F
:10076000AC07000004000020FF00000002000000B1
:10077000680000200030000000000000000C004273
:1007800000000000000000200100000000000080C8
:10079000000F0009000A070B010C00010002000312
:1007A0000004000500060007000800000102030421
:1007B0000102030401020304010203040102030411
:1007C0000102030401020304010203040199010070
:1007D0000000000000000000000000000000000019
:1007E0000000000000000000000000000000000009
:1007F00000000000000000000000000000000000F9
:1008000000000000000000000000000000000000E8
:1008100000000000000000000000000000000000D8
:1008200000000000000000000000000000000000C8
:0C083000000000000000000000000000BC
:04000005000000B93E
:00000001FF
