:020000040000FA
:10000000B8040020B9000000B5000000B5000000F1
:1000100000000000000000000000000000000000E0
:10002000000000000000000000000000B50000001B
:100030000000000000000000B5000000DB0500002B
:10004000B5000000B5000000B5000000B5000000DC
:10005000B5000000B5000000B5000000B5000000CC
:10006000B5000000B50000001D060000B50000004E
:10007000B5000000B5000000B5000000B5000000AC
:10008000B5000000B5000000F505000009060000FD
:10009000B50000000000000000000000B5000000F6
:1000A000B5000000B5000000B5000000B50000007C
:1000B0000000000000E0000000BF00BF00BF00BF64
:1000C00000BF704970497149714972497249734959
:1000D0006C490A68734FBA430A6073490A6A734FDE
:1000E0003A400A62CA681209FCD34A69704FBA439F
:1000F000704F3A434A61CA689208FCD38A696C4FD0
:10010000BA436C4F3A438A61CA68D208FCD36A4941
:100110006A4A8A604A78120AFCD2694A4A604A7876
:10012000120AFCD264495E4A8A604A78120AFCD2FA
:10013000654A4A604A78120AFCD26449644A4A60B5
:1001400059494A6A624F3A43594FBA434A62CA68A8
:100150005209FCD35F4A8A625F4ACA624A6A5F4FA9
:100160003A434A6254495E4A4A804A78120AFCD2AB
:1001700051495C4A8A604A78120AFCD24E495A4A6E
:100180008A604A78120AFCD2584A8A804A78120A4F
:10019000FCD2574A0A714A68564F3A434A604A7835
:1001A000120AFCD24449544A8A604A78120AFCD2A4
:1001B000524A8A804A78120AFCD24F4A0A714A6827
:1001C0004F4F3A434A604A78120AFCD24D494A7866
:1001D000494F3A434A700A6A4B4F3A430A623649DA
:1001E0004A4A4A804A78120AFCD2494A4A804A78E6
:1001F000120AFCD2474A4A804A78120AFCD2464A7E
:100200004A804A78120AFCD24449454A8A60454AE3
:100210008A624549454A4A700A782D4F3A430A7026
:10022000CA79120AFCD24249424A4A600A68424FDD
:100230003A430A604149424A0A604249424A8A6056
:10024000424A0A611A4A4A6141490A68414F3A439F
:100250000A60334A4A73164A8A610A781C4F3A4345
:100260000A70CA7B120AFCD200F085F900F0A0F8EF
:1002700000F028FA00F066FB02490A680F4F3A4383
:100280000A60CDE0B0000020000000200400002043
:10029000080000200C000020DC0F00005C120000B1
:1002A00000000000FFFFFFFF00080040FF00FFFF0D
:1002B000800000004E050000000C0040010000001E
:1002C000010501000000000000070100004000419E
:1002D0000200000000760000B90502040C040000D2
:1002E00000410000020800000308000003040000B1
:1002F00003000000000019000400000004060000D4
:100300000000010000040040083800001B4200000B
:100310001C4400000342000015400000004400415E
:1003200010000000100040C000100040BB000000A2
:1003300010E000E0FFFFFF000700000000E100E028
:1003400000041C0000E400E00000C0000000C0C089
:10035000002C004224160000000000005D490968DE
:100360005D4A12688A608A61704770475B495C4ADF
:100370008A605C4A8A625C4A8A627047704770474A
:100380007047704700B5594909680A68584F3A43A1
:100390000A60584ACA60584A4A600A7FD208FCD2AA
:1003A0000A68564F3A430A600A7F9208FCD200BDA1
:1003B00000B5534A4D490A60FFF7D8FFFFF7E2FF47
:1003C00051490A68514FBA430A6000BD4149096862
:1003D000414A12684A617047444909688A6992082B
:1003E000FCD33C4909683C4A12688A6170473F491E
:1003F00009688A695208FCD30E85704742490A6829
:10040000454FBA430A60394909688A695208FCD3E2
:100410000E858A699208FCD38A69D208FCD270479B
:1004200038490A6852080AD336490A683A4FBA432B
:100430000A6000F09BF800F028F800F01DFA31493E
:100440000A68D2080FD32F490A68394F3A430A6025
:100450003849CA7B120911D32A490A68344FBA4372
:100460000A602B498F4627490A68920906D3254915
:100470000A68354FBA430A6000F019F821490A6842
:100480001209CDD230BFCBE7CAE700B51D490A68D3
:1004900052090BD21B490A682F4F3A430A6000F0F9
:1004A000CCFA18490A682C4FBA430A6000BD00B55F
:1004B00014490A6852090BD212490A68264F3A4376
:1004C0000A6000F04AF90F490A68234FBA430A60EC
:1004D00000BD00000400002008000020004400418E
:1004E00000000300030045D2080047D2B4000020FA
:1004F0000C003000170000000000020002000000A5
:10050000000C0042B000002000000020FFFFFFFFB1
:10051000BD05000000000000010000000000000018
:1005200000000000000000000000000000000000CB
:10053000080000000034004200000000000000003D
:10054000000000000000000020000000000000008B
:10055000000000000000000010000000000000008B
:1005600000000000000000000000000000B5354958
:10057000354A0A6000BD35490A68354F3A430A607A
:10058000344A4A71CA7B120AFCD20A78324F3A4383
:100590000A70CA7B120AFCD270472C490A83CA7BB4
:1005A000120AFCD22D4A4A71CA7B120AFCD22C498B
:1005B0000A68284F3A430A602A498F4628490A6840
:1005C000244FBA430A60704718B500239B00C850F7
:1005D0009B080133A342F9D118BD86B52349244AAB
:1005E0008A60CA79120AFCD222490A68224F3A422A
:1005F000FFE786BD86B51A490A68214F3A430A606B
:100600002049114A8A7386BD86B515490A681F4F6D
:100610003A430A601E490C4A8A7386BD06B51D49D5
:100620008A69D20800D38E6A1A498A69120A04D3E9
:1006300019490A68124F3A430A601649174A8A61F3
:1006400006BD00001C4400411000000000340042C0
:100650002013000004000000020000004000000021
:10066000B000002021040000000000000010004045
:10067000A500000010E000E0000001000000000004
:1006800001000000002C00420000000020000000DB
:1006900000300042000C00420000002080000000FA
:1006A00084490A68844F3A430A60844A4A7370470F
:1006B00009B5002003469B00E258EA500130B842D9
:1006C000F8D109BD30B57E490A687E4F3A430A60C9
:1006D0007D490A687D4F3A430A60012730B47C4C5B
:1006E0007C4DFFF7E5FF30BC7A4D7B4C7B4AFFF732
:1006F00054FFFFF7D5FF7A4A7A490A607A4A7B4964
:100700000A607B4A7B490A60FFF728FE0E20FFF74C
:100710005DFEFF236678FFF76AFE2678FFF767FE27
:10072000013BF7D1FFF758FE02340138EFD16A7868
:1007300060498A610A78704F3A430A70CA7B120A8C
:10074000FCD204E05E490A686D4FBA430A605E4914
:100750000A685E4FBA430A6030BD38B558490A6826
:10076000120C30D358490A68584F3A430A605C4A21
:100770005C490A605C4A5D490A605D4A5D490A60FD
:10078000FFF7ECFD57490968614A8A82614C514D77
:100790000820FFF71BFE2B789B000646FFF727FE7D
:1007A0002678FFF724FE641C013BF6D1FFF714FE08
:1007B0000138EED10120AB78034202D000F009F8F5
:1007C00001E000F031F840490A68404FBA430A603E
:1007D00038BD40B53F4D2F784E4C7F01E419043CA5
:1007E00008204D4FEFF30082BA4382F300880026C1
:1007F0002B78226812BA5200324312BA2260EFF309
:100800000086760F454F3E40043C013BF1D1314D0F
:100810002F78BF00E419226812BA324312BA22605C
:10082000E41B0138DDD140BD40B52A4D2F78394C4D
:100830000820394FEFF30082BA4382F30088002684
:100840002B78226812BA5208324312BA2260EFF3B0
:100850000086B600324F3E400434013BF1D11D4DBD
:100860002F78BF00E41B226812BA324312BA22600A
:10087000E4190138DDD140BD00B52A4E2A4F3E4370
:100880002A490E602A4D234C1C4828490F5CBF00A2
:10089000E9591A4B284F5F433F180A78E255013156
:1008A000264F0133BB42F5D1254F0130B842ECD180
:1008B00000BD0000003000422417000010000000BE
:1008C000B0000020008000000000002000100000A8
:1008D0005C1400006C000020600B0000FF000000B2
:1008E000000C0042B400002000440041040000203D
:1008F00000000400080000200200000000000000CA
:1009000000300000000000000000000000000000B7
:10091000840000000C000020000000200100000006
:1009200000000080040302013030303070000020ED
:10093000DC0F0000000000000C00000008000000B8
:100940000400000000B564490A68644F3A430A6035
:1009500063490A68634F3A430A60634AFFF71DFE22
:10096000002062490724FFF72FFE61490224FFF7A8
:100970002BFE60490424FFF727FE5F4908605F4AA9
:100980005F490A605F4A60490A60604A60490A60DC
:10099000FFF7E4FC5A4909685F4ACA82564C5F4E29
:1009A0005F480640FFF712FDFFF728FD4C490A6833
:1009B000520835D2574EFFF721FD49490A685208BF
:1009C0002ED226700134FFF707FD484C564E54488E
:1009D0000640FFF7FBFCFFF711FD41490A6852088A
:1009E0001ED2524FB8464B484A4EFFF707FD3C49CE
:1009F0000A68520814D2265401304045F4D1FFF75A
:100A0000EBFCFFF7E3FC4A4E4A480640FFF7EFFCD9
:100A1000494E48480640FFF7EAFCFFF7DDFC06E0D8
:100A20002D490A682D4FBA430A60FFF7D5FC2C49BF
:100A30000A682C4FBA430A6000BD00B526490A680F
:100A4000520B43D326490A68264F3A430A602B4A81
:100A50002B490A602B4A2C490A602C4A2C490A600F
:100A6000FFF77CFC264909682B4ACA82FFF7AEFCD7
:100A7000364E30480640FFF7C1FC354E2D48064043
:100A8000FFF7BCFCFFF7A8FC324AFFF786FD184CC5
:100A9000FFF79CFC304E22480640FFF7AFFC1049A0
:100AA0000A68520810D22D4FB8461A48194EFFF75F
:100AB000A5FC0B490A68520806D22654013040456D
:100AC000F4D1FFF789FC01E0FFF786FC04490A68CE
:100AD000044FBA430A6000BDB000002000100000BF
:100AE000000000200020000002000000780000202C
:100AF00094000020A00000209C000020000C004278
:100B0000B400002000440041040000200400000064
:100B1000080000200000000084000000D000000059
:100B2000FF00000000000000880000001A00000024
:100B3000F20000007F000000010000000000000043
:100B4000000000000000000000000000F4000000B1
:100B5000250000000C000000F70000000600000067
:100B6000000F0009000A070B010C0001000200033E
:100B7000000400050006000700080000010203044D
:100B800005060708090A0B0C0102030405060708FD
:100B9000090A0B0C0102030405060708090A0B0CDD
:100BA0000102030405060708090A0B0C01020304ED
:100BB00005060708090A0B0C0102030405060708CD
:100BC000090A0B0C0102030405060708090A0B0CAD
:100BD0000102030405060708090A0B0C00000000C7
:100BE0000000000000000000000000000000000005
:100BF00000000000000000000000000000000000F5
:100C000000000000000000000000000000000000E4
:100C100000000000000000000000000000000000D4
:100C200000000000000000000000000000000000C4
:100C300000000000000000000000000000000000B4
:100C400000000000000000000000000000000000A4
:100C50000000000000000000000000000000000094
:100C60000000000000000000000000000000000084
:100C70000000000000000000000000000000000074
:100C80000000000000000000000000000000000064
:100C90000000000000000000000000000000000054
:100CA0000000000000000000000000000000000044
:100CB0000000000000000000000000000000000034
:100CC0000000000000000000000000000000000024
:100CD0000000000000000000000000000000000014
:100CE0000000000000000000000000000000000004
:100CF00000000000000000000000000000000000F4
:100D000000000000000000000000000000000000E3
:100D100000000000000000000000000000000000D3
:100D200000000000000000000000000000000000C3
:100D300000000000000000000000000000000000B3
:100D40000000000000000000000000000080000023
:100D5000000000000000000000000000007088C8D3
:100D6000A898887000E040404040C04000F8402013
:100D7000100888700070080810201078001010F813
:100D8000905030100070080808F080F800708888D3
:100D9000F080403000202020100888F800708888FB
:100DA00070888870006010087888887000000000E3
:100DB0000000000000000000000000000000000033
:100DC0000000000000000000000000000000000023
:100DD0000000000000000000000000000000000013
:100DE0000000000000000000000000000000000003
:100FD000000000000000000000000000DC0B00002A
:100FE000E40B0000EC0B0000F40B0000FC0B000015
:100FF000040C00000C0C0000140C00001C0C000081
:10100000240C00002C0C0000340C00003C0C0000F0
:10101000440C00004C0C0000540C00005C0C000060
:10102000640C00006C0C0000740C00007C0C0000D0
:10103000840C00008C0C0000940C00009C0C000040
:10104000A40C0000AC0C0000B40C0000BC0C0000B0
:10105000C40C0000CC0C0000D40C0000DC0C000020
:10106000E40C0000EC0C0000F40C0000FC0C000090
:10107000040D00000C0D0000140D00001C0D0000FC
:10108000240D00002C0D0000340D00003C0D00006C
:10109000440D00004C0D0000540D00005C0D0000DC
:1010A000640D00006C0D0000740D00007C0D00004C
:1010B000840D00008C0D0000940D00009C0D0000BC
:1010C000A40D0000AC0D0000B40D0000BC0D00002C
:1010D000C40D0000CC0D0000D40D0000DC0D00009C
:1010E000E40D0000EC0D0000F40D0000FC0D00000C
:1010F000040E00000C0E0000140E00001C0E000078
:10110000240E00002C0E0000340E00003C0E0000E7
:10111000440E00004C0E0000540E00005C0E000057
:10112000640E00006C0E0000740E00007C0E0000C7
:10113000840E00008C0E0000940E00009C0E000037
:10114000A40E0000AC0E0000B40E0000BC0E0000A7
:10115000C40E0000CC0E0000D40E0000DC0E000017
:10116000E40E0000EC0E0000F40E0000FC0E000087
:10117000040F00000C0F0000140F00001C0F0000F3
:10118000240F00002C0F0000340F00003C0F000063
:10119000440F00004C0F0000540F00005C0F0000D3
:1011A000640F00006C0F0000740F00007C0F000043
:1011B000840F00008C0F0000940F00009C0F0000B3
:1011C000A40F0000AC0F0000B40F0000BC0F000023
:1011D000C40F0000CC0F0000D40F0000000000007E
:1011E00000000000000000000000000000000000FF
:1011F00000000000000000000000000004000000EB
:1012000000000000000000000000070002040202CD
:1012100002020202020000000000000000000000C4
:1012200000000000000000000000000000000000BE
:1012300000000000000000000000000000000000AE
:10124000000000000000000000000000000000009E
:10125000000000000000000000000000DC110000A1
:10126000DD110000DE110000DF110000E0110000C0
:10127000E1110000E2110000E3110000E4110000A0
:10128000E5110000E6110000E7110000E811000080
:10129000E9110000EA110000EB110000EC11000060
:1012A000ED110000EE110000EF110000F011000040
:1012B000F1110000F2110000F3110000F411000020
:1012C000F5110000F6110000F7110000F811000000
:1012D000F9110000FA110000FB110000FC110000E0
:1012E000FD110000FE110000FF11000000120000BF
:1012F000011200000212000003120000041200009C
:10130000051200000612000007120000081200007B
:10131000091200000A1200000B1200000C1200005B
:101320000D1200000E1200000F120000101200003B
:10133000111200001212000013120000141200001B
:1013400015120000161200001712000018120000FB
:10135000191200001A1200001B1200001C120000DB
:101360001D1200001E1200001F12000020120000BB
:10137000211200002212000023120000241200009B
:10138000251200002612000027120000281200007B
:10139000291200002A1200002B1200002C1200005B
:1013A0002D1200002E1200002F120000301200003B
:1013B000311200003212000033120000341200001B
:1013C00035120000361200003712000038120000FB
:1013D000391200003A1200003B1200003C120000DB
:1013E0003D1200003E1200003F12000040120000BB
:1013F000411200004212000043120000441200009B
:10140000451200004612000047120000481200007A
:10141000491200004A1200004B1200004C1200005A
:101420004D1200004E1200004F120000501200003A
:10143000511200005212000053120000541200001A
:1014400055120000561200005712000058120000FA
:10145000591200005A1200005B12000003990100AB
:10146000000000000000000000000000000000007C
:10147000000000000000000000000000000000006C
:10148000000000000000000000000000000000005C
:10149000000000000000000000000000000000004C
:1014A000000000000000000000000000000000003C
:1014B000000000000000000000000000000000002C
:1014C000000000000000000000000000000000001C
:1014D000000000000000000000000000000000000C
:1014E00000000000000000000000000000000000FC
:1014F00000000000000000000000000000000000EC
:1015000000000000000000000000000000000000DB
:081510000000000000000000D3
:04000005000000B93E
:00000001FF
