:020000040000FA
:10000000A0040020B9000000B5000000B500000009
:1000100000000000000000000000000000000000E0
:10002000000000000000000000000000B50000001B
:100030000000000000000000B50000007F05000087
:10004000B5000000B5000000B5000000B5000000DC
:10005000B5000000B5000000B5000000B5000000CC
:10006000B5000000B5000000C1050000B5000000AB
:10007000B5000000B5000000B5000000B5000000AC
:10008000B5000000B500000099050000AD050000B6
:10009000B50000000000000000000000B5000000F6
:1000A000B5000000B5000000B5000000B50000007C
:1000B0000000000000E0000000BF00BF00BF00BF64
:1000C00000BF6F49FC49EF49EF496D490A68714F1C
:1000D000BA430A6070490A6A704F3A400A62CA68B5
:1000E0001209FCD34A696E4FBA436E4F3A434A61D4
:1000F000CA689208FCD38A69694FBA43694F3A4388
:100100008A61CA68D208FCD36749684A8A604A781B
:10011000120AFCD2664A4A604A78120AFCD2624944
:10012000584A8A604A78120AFCD2634A4A604A787E
:10013000120AFCD26149624A4A6057494A6A604FD2
:100140003A43574FBA434A62CA685209FCD35D4AE0
:100150008A625D4ACA624A6A5C4F3A434A625249BD
:100160005B4A4A804A78120AFCD24F49594A8A604F
:100170004A78120AFCD24C49574A8A604A78120AD5
:10018000FCD2564A8A804A78120AFCD2544A0A7132
:100190004A68544F3A434A604A78120AFCD24249AC
:1001A000514A8A604A78120AFCD2504A8A804A78B8
:1001B000120AFCD24C4A0A714A684D4F3A434A60CF
:1001C0004A78120AFCD24B494A78474F3A434A7060
:1001D0000A6A494F3A430A623349484A4A804A7890
:1001E000120AFCD2464A4A804A78120AFCD2454A90
:1001F0004A804A78120AFCD2434A4A804A78120A54
:10020000FCD24249424A8A60424A8A624249434A8F
:100210004A700A782A4F3A430A70CA79120AFCD205
:100220003F49404A4A600A683F4F3A430A603F49A3
:100230003F4A0A603F49404A8A60404A0A61184A78
:100240004A613F490A683F4F3A430A60304A4A735D
:10025000134A8A610A781A4F3A430A70CA7B120A13
:10026000FCD200F05AF900F09BF800F0EFF900F032
:1002700009FB03490A680D4F3A430A60BFE00000DA
:1002800098000020000000000000000000000000B6
:1002900000000000FFFFFFFF00080040FF00FFFF1D
:1002A000800000004E050000000C0040010000002E
:1002B00001050100000000000007010000400041AE
:1002C0000200000000760000B90502040C040000E2
:1002D00000410000020800000308000003040000C1
:1002E00003000000000019000400000004060000E4
:1002F0000000010000040040083800001B4200001C
:100300001C4400000342000015400000004400416E
:1003100010000000100040C000100040BB000000B2
:1003200010E000E0FFFFFF000700000000E100E038
:1003300000041C0000E400E00000C0000000C0C099
:10034000002C004224160000000000004D490968FE
:100350004D4A12688A608A61704770474B494C4A1F
:100360008A604C4A8A624C4A8A627047704770477A
:100370007047704700B5494909680A68484F3A43D1
:100380000A60484ACA60484A4A600A7FD208FCD2DA
:100390000A68464F3A430A600A7F9208FCD200BDC1
:1003A00000B5434A3D490A60FFF7D8FFFFF7E2FF77
:1003B00041490A68414FBA430A6000BD31490968A2
:1003C000314A12684A617047344909688A6992085B
:1003D000FCD32C4909682C4A12688A6170472F495E
:1003E00009688A695208FCD30E8570472B49096851
:1003F0008A69D208FCD38A69D208FCD270472D4999
:100400000A68520806D32B490A68324FBA430A6079
:1004100000F07EF827490A68D2080FD325490A68F8
:100420002F4F3A430A602F49CA7B120911D3214941
:100430000A682B4FBA430A6021498F461D490A6852
:10044000920906D31B490A682B4FBA430A6000F091
:1004500007F818490A681209D1D230BFCFE7CEE7B2
:1004600000B514490A6852090BD212490A68264F8E
:100470003A430A6000F03DF90E490A68224FBA4338
:100480000A6000BD04000020080000200044004174
:1004900000000300030045D2080047D29C00002062
:1004A0000C003000170000000000020002000000F5
:1004B000000C00429800002000000020FFFFFFFF1A
:1004C00061050000000000000000000000000000C6
:1004D000000000000100000000000000000000001B
:1004E000080000000034004200000000000000008E
:1004F00000000000000000002000000000000000DC
:1005000000000000000000001000000000000000DB
:1005100000B52F492F4A0A6000BD2F490A682F4FA6
:100520003A430A602E4A4A71CA7B120AFCD20A7800
:100530002C4F3A430A70CA7B120AFCD270472649F4
:100540000A83CA7B120AFCD2274A4A71CA7B120A62
:10055000FCD226490A68224F3A430A6024498F4652
:1005600022490A681E4FBA430A60704718B5002333
:100570009B00C8509B080133A342F9D118BD86B532
:100580001D491E4A8A60CA79120AFCD21C490A68AF
:100590001C4F3A42FFE786BD86B514490A681B4FD7
:1005A0003A430A601A490B4A8A7386BD86B50F49D9
:1005B0000A68194F3A430A601849064A8A7386BD89
:1005C00006B517498E6A1649164A8A6106BD0000AB
:1005D0001C440041100000000034004220130000C1
:1005E000040000000200000040000000980000200D
:1005F000FF0300000000000000100040A500000004
:1006000010E000E000000100000000000100000018
:10061000002C0042000000002000000000300042DA
:10062000000C00428000000079490A68794F3A4383
:100630000A60794A4A73704709B5002003469B0057
:10064000E258EA500130B842F8D109BD30B57349DB
:100650000A68734F3A430A6072490A68724F3A4314
:100660000A60012730B4714C714DFFF7E5FF30BCD3
:10067000FFF7DAFF6F4A70490A60704A70490A60F2
:10068000704A71490A60FFF761FE694D6F4C2F781F
:10069000FF0030B46E4C6F4DFFF7CEFF30BC6E4A9A
:1006A000FFF74DFF0E20FFF789FEFF236678FFF767
:1006B00096FE2678FFF793FE013BF7D1FFF784FE05
:1006C00002340138EFD16A7851498A610A78634F60
:1006D0003A430A70CA7B120AFCD204E04F490A6806
:1006E000604FBA430A604F490A684F4FBA430A60E5
:1006F00030BD38B549490A68120C30D349490A68F7
:10070000494F3A430A604B4A4B490A604B4A4C49AD
:100710000A604C4A4C490A60FFF718FE46490968CE
:10072000544A8A824B4C424D0820FFF747FE2B78F3
:100730009B000646FFF753FE2678FFF750FE641C29
:10074000013BF6D1FFF740FE0138EED10120AB7836
:10075000034202D000F009F801E000F031F831491D
:100760000A68314FBA430A6038BD40B5304D2F7822
:10077000384C7F01E419043C08203F4FEFF300821E
:10078000BA4382F3008800262B78226812BA5200FE
:10079000324312BA2260EFF30086760F374F3E40A5
:1007A000043C013BF1D1224D2F78BF00E4192268AF
:1007B00012BA324312BA2260E41B0138DDD140BDC7
:1007C00040B51B4D2F78234C08202B4FEFF30082B0
:1007D000BA4382F3008800262B78226812BA5208A6
:1007E000324312BA2260EFF30086B600244F3E4037
:1007F0000434013BF1D10E4D2F78BF00E41B226879
:1008000012BA324312BA2260E4190138DDD140BD78
:100810000030004224170000100000009800002063
:10082000008000000000002000100000A00900006F
:100830006C000020000C00429C000020004400419D
:1008400004000020000004000800002064090000EB
:10085000800900000C000020FF00000002000000E2
:100860000000000000300000000000000000000058
:1008700000000000840000000000002001000000D3
:100880000000008000B524490A68244F3A430A60FA
:1008900023490A68234F3A430A60234AFFF74FFE71
:1008A000002022490724FFF761FE21490224FFF7B7
:1008B0005DFE20490860204A20490A60204A2149FB
:1008C0000A60214A21490A60FFF740FD1B49096877
:1008D000204ACA82174CFFF771FD1F4EFFF77FFDBC
:1008E000FFF784FD01341A4EFFF779FDFFF77EFD17
:1008F00026700134FFF768FD06E007490A68074FD4
:10090000BA430A60FFF760FD05490A68054FBA431C
:100910000A6000BD00B500BD980000200010000076
:1009200000000020002000000200000070000020F5
:100930008C00002094000020000C00429C0000204D
:1009400000440041040000200400000008000020D2
:100950000000000084000000D00000000000000043
:1009600000000000000F0009000A070B010C000145
:100970000002000300040005000600070008000054
:10098000010203040102030401020304010203043F
:10099000010203040102030401020304010203042F
:1009A00001990100000000000000000000000000AC
:1009B0000000000000000000000000000000000037
:1009C0000000000000000000000000000000000027
:1009D0000000000000000000000000000000000017
:1009E0000000000000000000000000000000000007
:1009F00000000000000000000000000000000000F7
:100A000000000000000000000000000000000000E6
:100A100000000000000000000000000000000000D6
:100A200000000000000000000000000000000000C6
:100A300000000000000000000000000000000000B6
:040A400000000000B2
:04000005000000B93E
:00000001FF
